{
    "_format": "hh-sol-artifact-1",
    "contractName": "RoboPunksNFT",
    "sourceName": "contracts/RoboPunksNFT.sol",
    "abi": [
        {
            "inputs": [],
            "stateMutability": "nonpayable",
            "type": "constructor"
        },
        {
            "anonymous": false,
            "inputs": [
                {
                    "indexed": true,
                    "internalType": "address",
                    "name": "owner",
                    "type": "address"
                },
                {
                    "indexed": true,
                    "internalType": "address",
                    "name": "approved",
                    "type": "address"
                },
                {
                    "indexed": true,
                    "internalType": "uint256",
                    "name": "tokenId",
                    "type": "uint256"
                }
            ],
            "name": "Approval",
            "type": "event"
        },
        {
            "anonymous": false,
            "inputs": [
                {
                    "indexed": true,
                    "internalType": "address",
                    "name": "owner",
                    "type": "address"
                },
                {
                    "indexed": true,
                    "internalType": "address",
                    "name": "operator",
                    "type": "address"
                },
                {
                    "indexed": false,
                    "internalType": "bool",
                    "name": "approved",
                    "type": "bool"
                }
            ],
            "name": "ApprovalForAll",
            "type": "event"
        },
        {
            "anonymous": false,
            "inputs": [
                {
                    "indexed": true,
                    "internalType": "address",
                    "name": "previousOwner",
                    "type": "address"
                },
                {
                    "indexed": true,
                    "internalType": "address",
                    "name": "newOwner",
                    "type": "address"
                }
            ],
            "name": "OwnershipTransferred",
            "type": "event"
        },
        {
            "anonymous": false,
            "inputs": [
                {
                    "indexed": true,
                    "internalType": "address",
                    "name": "from",
                    "type": "address"
                },
                {
                    "indexed": true,
                    "internalType": "address",
                    "name": "to",
                    "type": "address"
                },
                {
                    "indexed": true,
                    "internalType": "uint256",
                    "name": "tokenId",
                    "type": "uint256"
                }
            ],
            "name": "Transfer",
            "type": "event"
        },
        {
            "inputs": [
                {
                    "internalType": "address",
                    "name": "to",
                    "type": "address"
                },
                {
                    "internalType": "uint256",
                    "name": "tokenId",
                    "type": "uint256"
                }
            ],
            "name": "approve",
            "outputs": [],
            "stateMutability": "nonpayable",
            "type": "function"
        },
        {
            "inputs": [
                {
                    "internalType": "address",
                    "name": "owner",
                    "type": "address"
                }
            ],
            "name": "balanceOf",
            "outputs": [
                {
                    "internalType": "uint256",
                    "name": "",
                    "type": "uint256"
                }
            ],
            "stateMutability": "view",
            "type": "function"
        },
        {
            "inputs": [],
            "name": "baseTokenUri",
            "outputs": [
                {
                    "internalType": "string",
                    "name": "",
                    "type": "string"
                }
            ],
            "stateMutability": "view",
            "type": "function"
        },
        {
            "inputs": [
                {
                    "internalType": "uint256",
                    "name": "tokenId",
                    "type": "uint256"
                }
            ],
            "name": "getApproved",
            "outputs": [
                {
                    "internalType": "address",
                    "name": "",
                    "type": "address"
                }
            ],
            "stateMutability": "view",
            "type": "function"
        },
        {
            "inputs": [
                {
                    "internalType": "address",
                    "name": "owner",
                    "type": "address"
                },
                {
                    "internalType": "address",
                    "name": "operator",
                    "type": "address"
                }
            ],
            "name": "isApprovedForAll",
            "outputs": [
                {
                    "internalType": "bool",
                    "name": "",
                    "type": "bool"
                }
            ],
            "stateMutability": "view",
            "type": "function"
        },
        {
            "inputs": [],
            "name": "isPublicMintEnabled",
            "outputs": [
                {
                    "internalType": "bool",
                    "name": "",
                    "type": "bool"
                }
            ],
            "stateMutability": "view",
            "type": "function"
        },
        {
            "inputs": [],
            "name": "maxPerWallet",
            "outputs": [
                {
                    "internalType": "uint256",
                    "name": "",
                    "type": "uint256"
                }
            ],
            "stateMutability": "view",
            "type": "function"
        },
        {
            "inputs": [
                {
                    "internalType": "address",
                    "name": "",
                    "type": "address"
                }
            ],
            "name": "maxPerWalletMints",
            "outputs": [
                {
                    "internalType": "uint256",
                    "name": "",
                    "type": "uint256"
                }
            ],
            "stateMutability": "view",
            "type": "function"
        },
        {
            "inputs": [],
            "name": "maxSupply",
            "outputs": [
                {
                    "internalType": "uint256",
                    "name": "",
                    "type": "uint256"
                }
            ],
            "stateMutability": "view",
            "type": "function"
        },
        {
            "inputs": [
                {
                    "internalType": "address",
                    "name": "_to",
                    "type": "address"
                },
                {
                    "internalType": "uint256",
                    "name": "_tokenId",
                    "type": "uint256"
                }
            ],
            "name": "mint",
            "outputs": [],
            "stateMutability": "payable",
            "type": "function"
        },
        {
            "inputs": [],
            "name": "mintPrice",
            "outputs": [
                {
                    "internalType": "uint256",
                    "name": "",
                    "type": "uint256"
                }
            ],
            "stateMutability": "view",
            "type": "function"
        },
        {
            "inputs": [],
            "name": "name",
            "outputs": [
                {
                    "internalType": "string",
                    "name": "",
                    "type": "string"
                }
            ],
            "stateMutability": "view",
            "type": "function"
        },
        {
            "inputs": [],
            "name": "owner",
            "outputs": [
                {
                    "internalType": "address",
                    "name": "",
                    "type": "address"
                }
            ],
            "stateMutability": "view",
            "type": "function"
        },
        {
            "inputs": [
                {
                    "internalType": "uint256",
                    "name": "tokenId",
                    "type": "uint256"
                }
            ],
            "name": "ownerOf",
            "outputs": [
                {
                    "internalType": "address",
                    "name": "",
                    "type": "address"
                }
            ],
            "stateMutability": "view",
            "type": "function"
        },
        {
            "inputs": [],
            "name": "renounceOwnership",
            "outputs": [],
            "stateMutability": "nonpayable",
            "type": "function"
        },
        {
            "inputs": [
                {
                    "internalType": "address",
                    "name": "from",
                    "type": "address"
                },
                {
                    "internalType": "address",
                    "name": "to",
                    "type": "address"
                },
                {
                    "internalType": "uint256",
                    "name": "tokenId",
                    "type": "uint256"
                }
            ],
            "name": "safeTransferFrom",
            "outputs": [],
            "stateMutability": "nonpayable",
            "type": "function"
        },
        {
            "inputs": [
                {
                    "internalType": "address",
                    "name": "from",
                    "type": "address"
                },
                {
                    "internalType": "address",
                    "name": "to",
                    "type": "address"
                },
                {
                    "internalType": "uint256",
                    "name": "tokenId",
                    "type": "uint256"
                },
                {
                    "internalType": "bytes",
                    "name": "data",
                    "type": "bytes"
                }
            ],
            "name": "safeTransferFrom",
            "outputs": [],
            "stateMutability": "nonpayable",
            "type": "function"
        },
        {
            "inputs": [
                {
                    "internalType": "address",
                    "name": "operator",
                    "type": "address"
                },
                {
                    "internalType": "bool",
                    "name": "approved",
                    "type": "bool"
                }
            ],
            "name": "setApprovalForAll",
            "outputs": [],
            "stateMutability": "nonpayable",
            "type": "function"
        },
        {
            "inputs": [
                {
                    "internalType": "string",
                    "name": "baseTokenUri_",
                    "type": "string"
                }
            ],
            "name": "setBaseTokenUri",
            "outputs": [],
            "stateMutability": "nonpayable",
            "type": "function"
        },
        {
            "inputs": [
                {
                    "internalType": "bool",
                    "name": "isPublicMintEnabled_",
                    "type": "bool"
                }
            ],
            "name": "setIsPublicMintEnabled",
            "outputs": [],
            "stateMutability": "nonpayable",
            "type": "function"
        },
        {
            "inputs": [
                {
                    "internalType": "bytes4",
                    "name": "interfaceId",
                    "type": "bytes4"
                }
            ],
            "name": "supportsInterface",
            "outputs": [
                {
                    "internalType": "bool",
                    "name": "",
                    "type": "bool"
                }
            ],
            "stateMutability": "view",
            "type": "function"
        },
        {
            "inputs": [],
            "name": "symbol",
            "outputs": [
                {
                    "internalType": "string",
                    "name": "",
                    "type": "string"
                }
            ],
            "stateMutability": "view",
            "type": "function"
        },
        {
            "inputs": [
                {
                    "internalType": "uint256",
                    "name": "tokenId",
                    "type": "uint256"
                }
            ],
            "name": "tokenURI",
            "outputs": [
                {
                    "internalType": "string",
                    "name": "",
                    "type": "string"
                }
            ],
            "stateMutability": "view",
            "type": "function"
        },
        {
            "inputs": [],
            "name": "totalSupply",
            "outputs": [
                {
                    "internalType": "uint256",
                    "name": "",
                    "type": "uint256"
                }
            ],
            "stateMutability": "view",
            "type": "function"
        },
        {
            "inputs": [
                {
                    "internalType": "address",
                    "name": "from",
                    "type": "address"
                },
                {
                    "internalType": "address",
                    "name": "to",
                    "type": "address"
                },
                {
                    "internalType": "uint256",
                    "name": "tokenId",
                    "type": "uint256"
                }
            ],
            "name": "transferFrom",
            "outputs": [],
            "stateMutability": "nonpayable",
            "type": "function"
        },
        {
            "inputs": [
                {
                    "internalType": "address",
                    "name": "newOwner",
                    "type": "address"
                }
            ],
            "name": "transferOwnership",
            "outputs": [],
            "stateMutability": "nonpayable",
            "type": "function"
        },
        {
            "inputs": [],
            "name": "withdrawWallet",
            "outputs": [
                {
                    "internalType": "address payable",
                    "name": "",
                    "type": "address"
                }
            ],
            "stateMutability": "view",
            "type": "function"
        }
    ],
    "bytecode": "0x60806040523480156200001157600080fd5b506040518060400160405280600981526020017f526f626f50756e6b7300000000000000000000000000000000000000000000008152506040518060400160405280600281526020017f525000000000000000000000000000000000000000000000000000000000000081525081600090816200008f919062000455565b508060019081620000a1919062000455565b505050620000c4620000b86200010d60201b60201c565b6200011560201b60201c565b6702c68af0bb14000060078190555060006008819055506105bd6009819055506002600a819055506000600b60006101000a81548160ff0219169083151502179055506200053c565b600033905090565b6000600660009054906101000a900473ffffffffffffffffffffffffffffffffffffffff16905081600660006101000a81548173ffffffffffffffffffffffffffffffffffffffff021916908373ffffffffffffffffffffffffffffffffffffffff1602179055508173ffffffffffffffffffffffffffffffffffffffff168173ffffffffffffffffffffffffffffffffffffffff167f8be0079c531659141344cd1fd0a4f28419497f9722a3daafe3b4186f6b6457e060405160405180910390a35050565b600081519050919050565b7f4e487b7100000000000000000000000000000000000000000000000000000000600052604160045260246000fd5b7f4e487b7100000000000000000000000000000000000000000000000000000000600052602260045260246000fd5b600060028204905060018216806200025d57607f821691505b60208210810362000273576200027262000215565b5b50919050565b60008190508160005260206000209050919050565b60006020601f8301049050919050565b600082821b905092915050565b600060088302620002dd7fffffffffffffffffffffffffffffffffffffffffffffffffffffffffffffffff826200029e565b620002e986836200029e565b95508019841693508086168417925050509392505050565b6000819050919050565b6000819050919050565b600062000336620003306200032a8462000301565b6200030b565b62000301565b9050919050565b6000819050919050565b620003528362000315565b6200036a62000361826200033d565b848454620002ab565b825550505050565b600090565b6200038162000372565b6200038e81848462000347565b505050565b5b81811015620003b657620003aa60008262000377565b60018101905062000394565b5050565b601f8211156200040557620003cf8162000279565b620003da846200028e565b81016020851015620003ea578190505b62000402620003f9856200028e565b83018262000393565b50505b505050565b600082821c905092915050565b60006200042a600019846008026200040a565b1980831691505092915050565b600062000445838362000417565b9150826002028217905092915050565b6200046082620001db565b67ffffffffffffffff8111156200047c576200047b620001e6565b5b62000488825462000244565b62000495828285620003ba565b600060209050601f831160018114620004cd5760008415620004b8578287015190505b620004c4858262000437565b86555062000534565b601f198416620004dd8662000279565b60005b828110156200050757848901518255600182019150602085019450602081019050620004e0565b8683101562000527578489015162000523601f89168262000417565b8355505b6001600288020188555050505b505050505050565b61364e806200054c6000396000f3fe60806040526004361061019c5760003560e01c806370a08231116100ec578063a22cb4651161008a578063d223a60c11610064578063d223a60c146105a7578063d5abeb01146105e4578063e985e9c51461060f578063f2fde38b1461064c5761019c565b8063a22cb46514610518578063b88d4fde14610541578063c87b56dd1461056a5761019c565b806385d178f4116100c657806385d178f41461046e5780638da5cb5b1461049957806395652cfa146104c457806395d89b41146104ed5761019c565b806370a08231146103ef578063715018a61461042c5780637a0101a2146104435761019c565b80632373ac221161015957806342842e0e1161013357806342842e0e14610333578063453c23101461035c5780636352211e146103875780636817c76c146103c45761019c565b80632373ac22146102c557806323b872dd146102ee57806340c10f19146103175761019c565b80630116bc2d146101a157806301ffc9a7146101cc57806306fdde0314610209578063081812fc14610234578063095ea7b31461027157806318160ddd1461029a575b600080fd5b3480156101ad57600080fd5b506101b6610675565b6040516101c39190612109565b60405180910390f35b3480156101d857600080fd5b506101f360048036038101906101ee9190612190565b610688565b6040516102009190612109565b60405180910390f35b34801561021557600080fd5b5061021e61076a565b60405161022b919061224d565b60405180910390f35b34801561024057600080fd5b5061025b600480360381019061025691906122a5565b6107fc565b6040516102689190612313565b60405180910390f35b34801561027d57600080fd5b506102986004803603810190610293919061235a565b610842565b005b3480156102a657600080fd5b506102af610959565b6040516102bc91906123a9565b60405180910390f35b3480156102d157600080fd5b506102ec60048036038101906102e791906123f0565b61095f565b005b3480156102fa57600080fd5b506103156004803603810190610310919061241d565b610984565b005b610331600480360381019061032c919061235a565b6109e4565b005b34801561033f57600080fd5b5061035a6004803603810190610355919061241d565b610c18565b005b34801561036857600080fd5b50610371610c38565b60405161037e91906123a9565b60405180910390f35b34801561039357600080fd5b506103ae60048036038101906103a991906122a5565b610c3e565b6040516103bb9190612313565b60405180910390f35b3480156103d057600080fd5b506103d9610cc4565b6040516103e691906123a9565b60405180910390f35b3480156103fb57600080fd5b5061041660048036038101906104119190612470565b610cca565b60405161042391906123a9565b60405180910390f35b34801561043857600080fd5b50610441610d81565b005b34801561044f57600080fd5b50610458610d95565b604051610465919061224d565b60405180910390f35b34801561047a57600080fd5b50610483610e23565b60405161049091906124be565b60405180910390f35b3480156104a557600080fd5b506104ae610e49565b6040516104bb9190612313565b60405180910390f35b3480156104d057600080fd5b506104eb60048036038101906104e6919061260e565b610e73565b005b3480156104f957600080fd5b50610502610e8e565b60405161050f919061224d565b60405180910390f35b34801561052457600080fd5b5061053f600480360381019061053a9190612657565b610f20565b005b34801561054d57600080fd5b5061056860048036038101906105639190612738565b610f36565b005b34801561057657600080fd5b50610591600480360381019061058c91906122a5565b610f98565b60405161059e919061224d565b60405180910390f35b3480156105b357600080fd5b506105ce60048036038101906105c99190612470565b611000565b6040516105db91906123a9565b60405180910390f35b3480156105f057600080fd5b506105f9611018565b60405161060691906123a9565b60405180910390f35b34801561061b57600080fd5b50610636600480360381019061063191906127bb565b61101e565b6040516106439190612109565b60405180910390f35b34801561065857600080fd5b50610673600480360381019061066e9190612470565b6110b2565b005b600b60009054906101000a900460ff1681565b60007f80ac58cd000000000000000000000000000000000000000000000000000000007bffffffffffffffffffffffffffffffffffffffffffffffffffffffff1916827bffffffffffffffffffffffffffffffffffffffffffffffffffffffff1916148061075357507f5b5e139f000000000000000000000000000000000000000000000000000000007bffffffffffffffffffffffffffffffffffffffffffffffffffffffff1916827bffffffffffffffffffffffffffffffffffffffffffffffffffffffff1916145b80610763575061076282611135565b5b9050919050565b6060600080546107799061282a565b80601f01602080910402602001604051908101604052809291908181526020018280546107a59061282a565b80156107f25780601f106107c7576101008083540402835291602001916107f2565b820191906000526020600020905b8154815290600101906020018083116107d557829003601f168201915b5050505050905090565b60006108078261119f565b6004600083815260200190815260200160002060009054906101000a900473ffffffffffffffffffffffffffffffffffffffff169050919050565b600061084d82610c3e565b90508073ffffffffffffffffffffffffffffffffffffffff168373ffffffffffffffffffffffffffffffffffffffff16036108bd576040517f08c379a00000000000000000000000000000000000000000000000000000000081526004016108b4906128cd565b60405180910390fd5b8073ffffffffffffffffffffffffffffffffffffffff166108dc6111ea565b73ffffffffffffffffffffffffffffffffffffffff16148061090b575061090a816109056111ea565b61101e565b5b61094a576040517f08c379a00000000000000000000000000000000000000000000000000000000081526004016109419061295f565b60405180910390fd5b61095483836111f2565b505050565b60085481565b6109676112ab565b80600b60006101000a81548160ff02191690831515021790555050565b61099561098f6111ea565b82611329565b6109d4576040517f08c379a00000000000000000000000000000000000000000000000000000000081526004016109cb906129f1565b60405180910390fd5b6109df8383836113be565b505050565b60003411610a27576040517f08c379a0000000000000000000000000000000000000000000000000000000008152600401610a1e90612a83565b60405180910390fd5b600b60009054906101000a900460ff16610a76576040517f08c379a0000000000000000000000000000000000000000000000000000000008152600401610a6d90612aef565b60405180910390fd5b6007543414610aba576040517f08c379a0000000000000000000000000000000000000000000000000000000008152600401610ab190612b5b565b60405180910390fd5b6009546001600854610acc9190612baa565b1115610b0d576040517f08c379a0000000000000000000000000000000000000000000000000000000008152600401610b0490612c2a565b60405180910390fd5b600a546001600e60008573ffffffffffffffffffffffffffffffffffffffff1673ffffffffffffffffffffffffffffffffffffffff16815260200190815260200160002054610b5c9190612baa565b1115610b9d576040517f08c379a0000000000000000000000000000000000000000000000000000000008152600401610b9490612c96565b60405180910390fd5b610ba782826116b7565b600e60008373ffffffffffffffffffffffffffffffffffffffff1673ffffffffffffffffffffffffffffffffffffffff1681526020019081526020016000206000815480929190610bf790612cb6565b919050555060086000815480929190610c0f90612cb6565b91905055505050565b610c3383838360405180602001604052806000815250610f36565b505050565b600a5481565b600080610c4a836118d4565b9050600073ffffffffffffffffffffffffffffffffffffffff168173ffffffffffffffffffffffffffffffffffffffff1603610cbb576040517f08c379a0000000000000000000000000000000000000000000000000000000008152600401610cb290612d4a565b60405180910390fd5b80915050919050565b60075481565b60008073ffffffffffffffffffffffffffffffffffffffff168273ffffffffffffffffffffffffffffffffffffffff1603610d3a576040517f08c379a0000000000000000000000000000000000000000000000000000000008152600401610d3190612ddc565b60405180910390fd5b600360008373ffffffffffffffffffffffffffffffffffffffff1673ffffffffffffffffffffffffffffffffffffffff168152602001908152602001600020549050919050565b610d896112ab565b610d936000611911565b565b600c8054610da29061282a565b80601f0160208091040260200160405190810160405280929190818152602001828054610dce9061282a565b8015610e1b5780601f10610df057610100808354040283529160200191610e1b565b820191906000526020600020905b815481529060010190602001808311610dfe57829003601f168201915b505050505081565b600d60009054906101000a900473ffffffffffffffffffffffffffffffffffffffff1681565b6000600660009054906101000a900473ffffffffffffffffffffffffffffffffffffffff16905090565b610e7b6112ab565b80600c9081610e8a9190612fa8565b5050565b606060018054610e9d9061282a565b80601f0160208091040260200160405190810160405280929190818152602001828054610ec99061282a565b8015610f165780601f10610eeb57610100808354040283529160200191610f16565b820191906000526020600020905b815481529060010190602001808311610ef957829003601f168201915b5050505050905090565b610f32610f2b6111ea565b83836119d7565b5050565b610f47610f416111ea565b83611329565b610f86576040517f08c379a0000000000000000000000000000000000000000000000000000000008152600401610f7d906129f1565b60405180910390fd5b610f9284848484611b43565b50505050565b6060610fa38261119f565b6000610fad611b9f565b90506000815111610fcd5760405180602001604052806000815250610ff8565b80610fd784611bb6565b604051602001610fe89291906130b6565b6040516020818303038152906040525b915050919050565b600e6020528060005260406000206000915090505481565b60095481565b6000600560008473ffffffffffffffffffffffffffffffffffffffff1673ffffffffffffffffffffffffffffffffffffffff16815260200190815260200160002060008373ffffffffffffffffffffffffffffffffffffffff1673ffffffffffffffffffffffffffffffffffffffff16815260200190815260200160002060009054906101000a900460ff16905092915050565b6110ba6112ab565b600073ffffffffffffffffffffffffffffffffffffffff168173ffffffffffffffffffffffffffffffffffffffff1603611129576040517f08c379a00000000000000000000000000000000000000000000000000000000081526004016111209061314c565b60405180910390fd5b61113281611911565b50565b60007f01ffc9a7000000000000000000000000000000000000000000000000000000007bffffffffffffffffffffffffffffffffffffffffffffffffffffffff1916827bffffffffffffffffffffffffffffffffffffffffffffffffffffffff1916149050919050565b6111a881611c84565b6111e7576040517f08c379a00000000000000000000000000000000000000000000000000000000081526004016111de90612d4a565b60405180910390fd5b50565b600033905090565b816004600083815260200190815260200160002060006101000a81548173ffffffffffffffffffffffffffffffffffffffff021916908373ffffffffffffffffffffffffffffffffffffffff160217905550808273ffffffffffffffffffffffffffffffffffffffff1661126583610c3e565b73ffffffffffffffffffffffffffffffffffffffff167f8c5be1e5ebec7d5bd14f71427d1e84f3dd0314c0f7b2291e5b200ac8c7c3b92560405160405180910390a45050565b6112b36111ea565b73ffffffffffffffffffffffffffffffffffffffff166112d1610e49565b73ffffffffffffffffffffffffffffffffffffffff1614611327576040517f08c379a000000000000000000000000000000000000000000000000000000000815260040161131e906131b8565b60405180910390fd5b565b60008061133583610c3e565b90508073ffffffffffffffffffffffffffffffffffffffff168473ffffffffffffffffffffffffffffffffffffffff1614806113775750611376818561101e565b5b806113b557508373ffffffffffffffffffffffffffffffffffffffff1661139d846107fc565b73ffffffffffffffffffffffffffffffffffffffff16145b91505092915050565b8273ffffffffffffffffffffffffffffffffffffffff166113de82610c3e565b73ffffffffffffffffffffffffffffffffffffffff1614611434576040517f08c379a000000000000000000000000000000000000000000000000000000000815260040161142b9061324a565b60405180910390fd5b600073ffffffffffffffffffffffffffffffffffffffff168273ffffffffffffffffffffffffffffffffffffffff16036114a3576040517f08c379a000000000000000000000000000000000000000000000000000000000815260040161149a906132dc565b60405180910390fd5b6114b08383836001611cc5565b8273ffffffffffffffffffffffffffffffffffffffff166114d082610c3e565b73ffffffffffffffffffffffffffffffffffffffff1614611526576040517f08c379a000000000000000000000000000000000000000000000000000000000815260040161151d9061324a565b60405180910390fd5b6004600082815260200190815260200160002060006101000a81549073ffffffffffffffffffffffffffffffffffffffff02191690556001600360008573ffffffffffffffffffffffffffffffffffffffff1673ffffffffffffffffffffffffffffffffffffffff168152602001908152602001600020600082825403925050819055506001600360008473ffffffffffffffffffffffffffffffffffffffff1673ffffffffffffffffffffffffffffffffffffffff16815260200190815260200160002060008282540192505081905550816002600083815260200190815260200160002060006101000a81548173ffffffffffffffffffffffffffffffffffffffff021916908373ffffffffffffffffffffffffffffffffffffffff160217905550808273ffffffffffffffffffffffffffffffffffffffff168473ffffffffffffffffffffffffffffffffffffffff167fddf252ad1be2c89b69c2b068fc378daa952ba7f163c4a11628f55a4df523b3ef60405160405180910390a46116b28383836001611deb565b505050565b600073ffffffffffffffffffffffffffffffffffffffff168273ffffffffffffffffffffffffffffffffffffffff1603611726576040517f08c379a000000000000000000000000000000000000000000000000000000000815260040161171d90613348565b60405180910390fd5b61172f81611c84565b1561176f576040517f08c379a0000000000000000000000000000000000000000000000000000000008152600401611766906133b4565b60405180910390fd5b61177d600083836001611cc5565b61178681611c84565b156117c6576040517f08c379a00000000000000000000000000000000000000000000000000000000081526004016117bd906133b4565b60405180910390fd5b6001600360008473ffffffffffffffffffffffffffffffffffffffff1673ffffffffffffffffffffffffffffffffffffffff16815260200190815260200160002060008282540192505081905550816002600083815260200190815260200160002060006101000a81548173ffffffffffffffffffffffffffffffffffffffff021916908373ffffffffffffffffffffffffffffffffffffffff160217905550808273ffffffffffffffffffffffffffffffffffffffff16600073ffffffffffffffffffffffffffffffffffffffff167fddf252ad1be2c89b69c2b068fc378daa952ba7f163c4a11628f55a4df523b3ef60405160405180910390a46118d0600083836001611deb565b5050565b60006002600083815260200190815260200160002060009054906101000a900473ffffffffffffffffffffffffffffffffffffffff169050919050565b6000600660009054906101000a900473ffffffffffffffffffffffffffffffffffffffff16905081600660006101000a81548173ffffffffffffffffffffffffffffffffffffffff021916908373ffffffffffffffffffffffffffffffffffffffff1602179055508173ffffffffffffffffffffffffffffffffffffffff168173ffffffffffffffffffffffffffffffffffffffff167f8be0079c531659141344cd1fd0a4f28419497f9722a3daafe3b4186f6b6457e060405160405180910390a35050565b8173ffffffffffffffffffffffffffffffffffffffff168373ffffffffffffffffffffffffffffffffffffffff1603611a45576040517f08c379a0000000000000000000000000000000000000000000000000000000008152600401611a3c90613420565b60405180910390fd5b80600560008573ffffffffffffffffffffffffffffffffffffffff1673ffffffffffffffffffffffffffffffffffffffff16815260200190815260200160002060008473ffffffffffffffffffffffffffffffffffffffff1673ffffffffffffffffffffffffffffffffffffffff16815260200190815260200160002060006101000a81548160ff0219169083151502179055508173ffffffffffffffffffffffffffffffffffffffff168373ffffffffffffffffffffffffffffffffffffffff167f17307eab39ab6107e8899845ad3d59bd9653f200f220920489ca2b5937696c3183604051611b369190612109565b60405180910390a3505050565b611b4e8484846113be565b611b5a84848484611df1565b611b99576040517f08c379a0000000000000000000000000000000000000000000000000000000008152600401611b90906134b2565b60405180910390fd5b50505050565b606060405180602001604052806000815250905090565b606060006001611bc584611f78565b01905060008167ffffffffffffffff811115611be457611be36124e3565b5b6040519080825280601f01601f191660200182016040528015611c165781602001600182028036833780820191505090505b509050600082602001820190505b600115611c79578080600190039150507f3031323334353637383961626364656600000000000000000000000000000000600a86061a8153600a8581611c6d57611c6c6134d2565b5b04945060008503611c24575b819350505050919050565b60008073ffffffffffffffffffffffffffffffffffffffff16611ca6836118d4565b73ffffffffffffffffffffffffffffffffffffffff1614159050919050565b6001811115611de557600073ffffffffffffffffffffffffffffffffffffffff168473ffffffffffffffffffffffffffffffffffffffff1614611d595780600360008673ffffffffffffffffffffffffffffffffffffffff1673ffffffffffffffffffffffffffffffffffffffff1681526020019081526020016000206000828254611d519190613501565b925050819055505b600073ffffffffffffffffffffffffffffffffffffffff168373ffffffffffffffffffffffffffffffffffffffff1614611de45780600360008573ffffffffffffffffffffffffffffffffffffffff1673ffffffffffffffffffffffffffffffffffffffff1681526020019081526020016000206000828254611ddc9190612baa565b925050819055505b5b50505050565b50505050565b6000611e128473ffffffffffffffffffffffffffffffffffffffff166120cb565b15611f6b578373ffffffffffffffffffffffffffffffffffffffff1663150b7a02611e3b6111ea565b8786866040518563ffffffff1660e01b8152600401611e5d949392919061358a565b6020604051808303816000875af1925050508015611e9957506040513d601f19601f82011682018060405250810190611e9691906135eb565b60015b611f1b573d8060008114611ec9576040519150601f19603f3d011682016040523d82523d6000602084013e611ece565b606091505b506000815103611f13576040517f08c379a0000000000000000000000000000000000000000000000000000000008152600401611f0a906134b2565b60405180910390fd5b805181602001fd5b63150b7a0260e01b7bffffffffffffffffffffffffffffffffffffffffffffffffffffffff1916817bffffffffffffffffffffffffffffffffffffffffffffffffffffffff191614915050611f70565b600190505b949350505050565b600080600090507a184f03e93ff9f4daa797ed6e38ed64bf6a1f0100000000000000008310611fd6577a184f03e93ff9f4daa797ed6e38ed64bf6a1f0100000000000000008381611fcc57611fcb6134d2565b5b0492506040810190505b6d04ee2d6d415b85acef81000000008310612013576d04ee2d6d415b85acef81000000008381612009576120086134d2565b5b0492506020810190505b662386f26fc10000831061204257662386f26fc100008381612038576120376134d2565b5b0492506010810190505b6305f5e100831061206b576305f5e1008381612061576120606134d2565b5b0492506008810190505b6127108310612090576127108381612086576120856134d2565b5b0492506004810190505b606483106120b357606483816120a9576120a86134d2565b5b0492506002810190505b600a83106120c2576001810190505b80915050919050565b6000808273ffffffffffffffffffffffffffffffffffffffff163b119050919050565b60008115159050919050565b612103816120ee565b82525050565b600060208201905061211e60008301846120fa565b92915050565b6000604051905090565b600080fd5b600080fd5b60007fffffffff0000000000000000000000000000000000000000000000000000000082169050919050565b61216d81612138565b811461217857600080fd5b50565b60008135905061218a81612164565b92915050565b6000602082840312156121a6576121a561212e565b5b60006121b48482850161217b565b91505092915050565b600081519050919050565b600082825260208201905092915050565b60005b838110156121f75780820151818401526020810190506121dc565b60008484015250505050565b6000601f19601f8301169050919050565b600061221f826121bd565b61222981856121c8565b93506122398185602086016121d9565b61224281612203565b840191505092915050565b600060208201905081810360008301526122678184612214565b905092915050565b6000819050919050565b6122828161226f565b811461228d57600080fd5b50565b60008135905061229f81612279565b92915050565b6000602082840312156122bb576122ba61212e565b5b60006122c984828501612290565b91505092915050565b600073ffffffffffffffffffffffffffffffffffffffff82169050919050565b60006122fd826122d2565b9050919050565b61230d816122f2565b82525050565b60006020820190506123286000830184612304565b92915050565b612337816122f2565b811461234257600080fd5b50565b6000813590506123548161232e565b92915050565b600080604083850312156123715761237061212e565b5b600061237f85828601612345565b925050602061239085828601612290565b9150509250929050565b6123a38161226f565b82525050565b60006020820190506123be600083018461239a565b92915050565b6123cd816120ee565b81146123d857600080fd5b50565b6000813590506123ea816123c4565b92915050565b6000602082840312156124065761240561212e565b5b6000612414848285016123db565b91505092915050565b6000806000606084860312156124365761243561212e565b5b600061244486828701612345565b935050602061245586828701612345565b925050604061246686828701612290565b9150509250925092565b6000602082840312156124865761248561212e565b5b600061249484828501612345565b91505092915050565b60006124a8826122d2565b9050919050565b6124b88161249d565b82525050565b60006020820190506124d360008301846124af565b92915050565b600080fd5b600080fd5b7f4e487b7100000000000000000000000000000000000000000000000000000000600052604160045260246000fd5b61251b82612203565b810181811067ffffffffffffffff8211171561253a576125396124e3565b5b80604052505050565b600061254d612124565b90506125598282612512565b919050565b600067ffffffffffffffff821115612579576125786124e3565b5b61258282612203565b9050602081019050919050565b82818337600083830152505050565b60006125b16125ac8461255e565b612543565b9050828152602081018484840111156125cd576125cc6124de565b5b6125d884828561258f565b509392505050565b600082601f8301126125f5576125f46124d9565b5b813561260584826020860161259e565b91505092915050565b6000602082840312156126245761262361212e565b5b600082013567ffffffffffffffff81111561264257612641612133565b5b61264e848285016125e0565b91505092915050565b6000806040838503121561266e5761266d61212e565b5b600061267c85828601612345565b925050602061268d858286016123db565b9150509250929050565b600067ffffffffffffffff8211156126b2576126b16124e3565b5b6126bb82612203565b9050602081019050919050565b60006126db6126d684612697565b612543565b9050828152602081018484840111156126f7576126f66124de565b5b61270284828561258f565b509392505050565b600082601f83011261271f5761271e6124d9565b5b813561272f8482602086016126c8565b91505092915050565b600080600080608085870312156127525761275161212e565b5b600061276087828801612345565b945050602061277187828801612345565b935050604061278287828801612290565b925050606085013567ffffffffffffffff8111156127a3576127a2612133565b5b6127af8782880161270a565b91505092959194509250565b600080604083850312156127d2576127d161212e565b5b60006127e085828601612345565b92505060206127f185828601612345565b9150509250929050565b7f4e487b7100000000000000000000000000000000000000000000000000000000600052602260045260246000fd5b6000600282049050600182168061284257607f821691505b602082108103612855576128546127fb565b5b50919050565b7f4552433732313a20617070726f76616c20746f2063757272656e74206f776e6560008201527f7200000000000000000000000000000000000000000000000000000000000000602082015250565b60006128b76021836121c8565b91506128c28261285b565b604082019050919050565b600060208201905081810360008301526128e6816128aa565b9050919050565b7f4552433732313a20617070726f76652063616c6c6572206973206e6f7420746f60008201527f6b656e206f776e6572206f7220617070726f76656420666f7220616c6c000000602082015250565b6000612949603d836121c8565b9150612954826128ed565b604082019050919050565b600060208201905081810360008301526129788161293c565b9050919050565b7f4552433732313a2063616c6c6572206973206e6f7420746f6b656e206f776e6560008201527f72206f7220617070726f76656400000000000000000000000000000000000000602082015250565b60006129db602d836121c8565b91506129e68261297f565b604082019050919050565b60006020820190508181036000830152612a0a816129ce565b9050919050565b7f6d73672e76616c75652073686f756c642062652067726561746572207468616e60008201527f207a65726f000000000000000000000000000000000000000000000000000000602082015250565b6000612a6d6025836121c8565b9150612a7882612a11565b604082019050919050565b60006020820190508181036000830152612a9c81612a60565b9050919050565b7f6d696e74696e67206e6f7420656e61626c656400000000000000000000000000600082015250565b6000612ad96013836121c8565b9150612ae482612aa3565b602082019050919050565b60006020820190508181036000830152612b0881612acc565b9050919050565b7f77726f6e67206d696e742076616c756500000000000000000000000000000000600082015250565b6000612b456010836121c8565b9150612b5082612b0f565b602082019050919050565b60006020820190508181036000830152612b7481612b38565b9050919050565b7f4e487b7100000000000000000000000000000000000000000000000000000000600052601160045260246000fd5b6000612bb58261226f565b9150612bc08361226f565b9250828201905080821115612bd857612bd7612b7b565b5b92915050565b7f736f6c64206f7574000000000000000000000000000000000000000000000000600082015250565b6000612c146008836121c8565b9150612c1f82612bde565b602082019050919050565b60006020820190508181036000830152612c4381612c07565b9050919050565b7f657863656564206d61782077616c6c6574000000000000000000000000000000600082015250565b6000612c806011836121c8565b9150612c8b82612c4a565b602082019050919050565b60006020820190508181036000830152612caf81612c73565b9050919050565b6000612cc18261226f565b91507fffffffffffffffffffffffffffffffffffffffffffffffffffffffffffffffff8203612cf357612cf2612b7b565b5b600182019050919050565b7f4552433732313a20696e76616c696420746f6b656e2049440000000000000000600082015250565b6000612d346018836121c8565b9150612d3f82612cfe565b602082019050919050565b60006020820190508181036000830152612d6381612d27565b9050919050565b7f4552433732313a2061646472657373207a65726f206973206e6f74206120766160008201527f6c6964206f776e65720000000000000000000000000000000000000000000000602082015250565b6000612dc66029836121c8565b9150612dd182612d6a565b604082019050919050565b60006020820190508181036000830152612df581612db9565b9050919050565b60008190508160005260206000209050919050565b60006020601f8301049050919050565b600082821b905092915050565b600060088302612e5e7fffffffffffffffffffffffffffffffffffffffffffffffffffffffffffffffff82612e21565b612e688683612e21565b95508019841693508086168417925050509392505050565b6000819050919050565b6000612ea5612ea0612e9b8461226f565b612e80565b61226f565b9050919050565b6000819050919050565b612ebf83612e8a565b612ed3612ecb82612eac565b848454612e2e565b825550505050565b600090565b612ee8612edb565b612ef3818484612eb6565b505050565b5b81811015612f1757612f0c600082612ee0565b600181019050612ef9565b5050565b601f821115612f5c57612f2d81612dfc565b612f3684612e11565b81016020851015612f45578190505b612f59612f5185612e11565b830182612ef8565b50505b505050565b600082821c905092915050565b6000612f7f60001984600802612f61565b1980831691505092915050565b6000612f988383612f6e565b9150826002028217905092915050565b612fb1826121bd565b67ffffffffffffffff811115612fca57612fc96124e3565b5b612fd4825461282a565b612fdf828285612f1b565b600060209050601f8311600181146130125760008415613000578287015190505b61300a8582612f8c565b865550613072565b601f19841661302086612dfc565b60005b8281101561304857848901518255600182019150602085019450602081019050613023565b868310156130655784890151613061601f891682612f6e565b8355505b6001600288020188555050505b505050505050565b600081905092915050565b6000613090826121bd565b61309a818561307a565b93506130aa8185602086016121d9565b80840191505092915050565b60006130c28285613085565b91506130ce8284613085565b91508190509392505050565b7f4f776e61626c653a206e6577206f776e657220697320746865207a65726f206160008201527f6464726573730000000000000000000000000000000000000000000000000000602082015250565b60006131366026836121c8565b9150613141826130da565b604082019050919050565b6000602082019050818103600083015261316581613129565b9050919050565b7f4f776e61626c653a2063616c6c6572206973206e6f7420746865206f776e6572600082015250565b60006131a26020836121c8565b91506131ad8261316c565b602082019050919050565b600060208201905081810360008301526131d181613195565b9050919050565b7f4552433732313a207472616e736665722066726f6d20696e636f72726563742060008201527f6f776e6572000000000000000000000000000000000000000000000000000000602082015250565b60006132346025836121c8565b915061323f826131d8565b604082019050919050565b6000602082019050818103600083015261326381613227565b9050919050565b7f4552433732313a207472616e7366657220746f20746865207a65726f2061646460008201527f7265737300000000000000000000000000000000000000000000000000000000602082015250565b60006132c66024836121c8565b91506132d18261326a565b604082019050919050565b600060208201905081810360008301526132f5816132b9565b9050919050565b7f4552433732313a206d696e7420746f20746865207a65726f2061646472657373600082015250565b60006133326020836121c8565b915061333d826132fc565b602082019050919050565b6000602082019050818103600083015261336181613325565b9050919050565b7f4552433732313a20746f6b656e20616c7265616479206d696e74656400000000600082015250565b600061339e601c836121c8565b91506133a982613368565b602082019050919050565b600060208201905081810360008301526133cd81613391565b9050919050565b7f4552433732313a20617070726f766520746f2063616c6c657200000000000000600082015250565b600061340a6019836121c8565b9150613415826133d4565b602082019050919050565b60006020820190508181036000830152613439816133fd565b9050919050565b7f4552433732313a207472616e7366657220746f206e6f6e20455243373231526560008201527f63656976657220696d706c656d656e7465720000000000000000000000000000602082015250565b600061349c6032836121c8565b91506134a782613440565b604082019050919050565b600060208201905081810360008301526134cb8161348f565b9050919050565b7f4e487b7100000000000000000000000000000000000000000000000000000000600052601260045260246000fd5b600061350c8261226f565b91506135178361226f565b925082820390508181111561352f5761352e612b7b565b5b92915050565b600081519050919050565b600082825260208201905092915050565b600061355c82613535565b6135668185613540565b93506135768185602086016121d9565b61357f81612203565b840191505092915050565b600060808201905061359f6000830187612304565b6135ac6020830186612304565b6135b9604083018561239a565b81810360608301526135cb8184613551565b905095945050505050565b6000815190506135e581612164565b92915050565b6000602082840312156136015761360061212e565b5b600061360f848285016135d6565b9150509291505056fea2646970667358221220e732acf0fbd15848c02f7a06d6fdf02526a9486a91cc7dd2bb11dd34f2afb27364736f6c63430008110033",
    "linkReferences": {},
    "deployedLinkReferences": {}
}